:1000000000308A0083280000223084008313000817
:10001000031918280130F800F701F70B0D28F80B29
:100020000C284A30F700F70B13281628800B0A28F3
:100030000800A1012108043C031C2E288316061089
:10004000831206140130A2000420831606108312C6
:1000500006101330A2000420A10A1A288A110A12DD
:1000600090281230A302031C4428233084008313F9
:10007000FC3080050310800C800C00080319442814
:1000800042280000800B41280800A1012108043CFF
:10009000031C682883160610831206140130A20080
:1000A00004200230A200F730A3003120A20B532815
:1000B00083160610831206101230A20004200230AC
:1000C000A200F730A3003120A20B6128A10A462824
:1000D0008A110A129828A1012108043C031C8028D7
:1000E00083160610831206140230A2000420831621
:1000F0000610831206101230A2000420A10A6C28F8
:100100008A110A12A02803081F39830083161F14BE
:100110009F141F159F1107309C0083138312192809
:100120000430A100FA30A2000420A10B9228452837
:100130000430A100FA30A2000420A10B9A286B28F9
:100140000430A100FA30A2000420A10BA2288F28BD
:0201500063004A
:02400E00313F40
:00000001FF
;PIC16F877A
;CRC=8F2D  CREATED="17-Jan-23 11:30"
