:1000000001308A0035290000412AAB21CD23C61ECC
:100010003100412AAB21CD23D31EA218B219B41A44
:10002000B61BB81C301100010D234929C510211041
:10003000C624D222A11021008E30F7002808F80033
:100040002708F900FA01F808031D30287908F8009C
:10005000F9010830F702F808031D3028F7013828A5
:100060000310F81B3728F90DF80DF7033028F813A3
:100070008A110A127A2927080319AB28AF002B0826
:100080000319AB28AF0703184C287F30AF02031CBD
:10009000AB280319AB2850288130AF070318AB28D1
:1000A0002F08F700F801F901FA012808B300B31787
:1000B0002908B2002A08B1001830AF00B001311C85
:1000C00079282E08FA07031C6B28F90A031D6B28F0
:1000D000F80A0319B0172D08F907031C7228F80A4B
:1000E0000319B0172C08A900A9172908F807031845
:1000F000B017B00DF80CF90CFA0CB30CB20CB10C33
:100100000310AF0B5E280130F7070318AB28F81B6C
:100110009028B30DFA0DF90DF80DF7030319AB286C
:10012000B31FA128FA0A031DA128F90A031DA1285B
:10013000F80A031DA128F80CF90CFA0CF70A0319A8
:10014000AB282808B0002C08B006B01FA928F81763
:10015000AF28F813AF28F701F801F901FA018A1165
:100160000A128B298E30F7002708F7022808F900B9
:100170002908F800F917F7080319C9280310F90826
:10018000031DC528F8080319C928F90CF80CF70B4A
:10019000BE28A81FD028F809F909F80A0319F90A96
:1001A0008A110A1294292830840083130008031945
:1001B000E7280130F800F701F70BDC28F80BDB2803
:1001C0004A30F700F70BE228E528800BD928080011
:1001D0000B08A7008B13831603178C170C14000051
:1001E000000083120C087F39031931290313A8007A
:1001F00003170D080313A90003170F080313AA0020
:1002000028080C1E01299900290803178D000313E3
:100210002A0803178F0083168C170C1400000000A7
:1002200083120C0D0E0D7F39031931290313A80019
:1002300003170D080313A90003170F080313AA00DF
:1002400028080C1E21299900290803178D00031383
:100250002A0803178F008D0A03198F0A0313EB284E
:1002600003170313A71B8B17080003081F3983000C
:10027000A001193083169900A6309800903083129F
:10028000980083161F149F141F159F1107309C00A0
:1002900083130D308312A1001A30A200A301A5011F
:1002A000A40183161F109F101F159F111F13831287
:1002B0001F179F1783169F1783121F14A601003064
:1002C000F8001F08C73978049F00A30803196C2998
:1002D000A3011F1DA30A65291F151F196D29831668
:1002E0001E088312A4001E08A5002508A8002408E3
:1002F000A7001C287A08AA007908A9007808A80095
:100300007708A7002330AE00DB30AD007930AC00B9
:100310007D30AB003B287A08AA007908A90078084C
:10032000A8007708A700B2287908A5007808A400DB
:10033000A508031D9F292408233C0318E129A608CA
:10034000031DE1290130A60041300C1EA5299900AA
:1003500054300C1EA929990021080C1EAD299900C2
:10036000C830A800D320043003178D0000308F0060
:100370000313E82021080C1EBB299900C830A800EF
:10038000D320093003178D0000308F000313E820BD
:1003900021080C1EC9299900C830A800D3201430A8
:1003A00003178D0000308F000313E82022080C1E75
:1003B000D72999000830A700FA30A800D320A70B4E
:1003C000DC29A508031DE8292408213C0318ED2990
:1003D0008316061083120614F12983160610831261
:0603E00006105F29630016
:02400E00313F40
:00000001FF
;PIC16F877A
;CRC=D11B  CREATED="17-Jan-23 09:40"
