:1000000000308A0019280000213084008313000882
:10001000031918280130F800F701F70B0D28F80B29
:100020000C284A30F700F70B13281628800B0A28F3
:10003000080003081F398300FF30A00083161F1437
:100040009F141F159F1107309C0083138113061402
:10005000831206183E28201020088316870083127A
:1000600007146430A1000420A01020088316870024
:1000700083128710C830A1000420502820102008C7
:1000800083168700831207106430A1000420A0109B
:1000900020088316870083128714C830A10004202B
:0600A0008316272863000F
:02400E00313F40
:00000001FF
;PIC16F877A
;CRC=3E53  CREATED="15-Jan-23 19:21"
