:1000000000308A000428000003081F39830083168B
:100010001F149F141F159F1107309C0083131F107E
:100020009F101F119F111F1383121F179F178316F5
:100030009F1783121F14A101A301A2010030F80031
:100040001F08C73978049F00A108031D2B28A101B0
:100050001F1DA10A24281F151F192C2883161E08EE
:100060008312A2001E08A300A308031D4028220833
:10007000023C031C402883160610831206144428F1
:0C00800083160610831206101E28630071
:02400E00313F40
:00000001FF
;PIC16F877A
;CRC=2C8A  CREATED="16-Jan-23 17:49"
