:1000000004308A00302C00000A108A100A1182077E
:1000100028340C34013406340C29E530E434EE3352
:10002000A020EE30EC3767172E1700000C32E933B2
:100030005F3B6136BD1266003630840083130008D2
:10004000031930280130F800F701F70B2528F80BC9
:1000500024284A30F700F70B2B282E28800B222863
:1000600008003D183528081236280816831608128D
:100070008312BD183D2888123E28881683168812E0
:1000800083123D19452808134628081783160813BC
:100090008312BD194D2888134E288817831688139C
:1000A00000008312081583160811562883120811C0
:1000B0008316081183120800BE018316081600304B
:1000C0008312081A0130BE0483168816003083128A
:1000D000881A0130F7000310F70D7708BE04831665
:1000E000081700308312081B0130F700F70DF70DD9
:1000F000FC30F7057708BE0483168817003083129A
:10010000881B0130F700F70DF70DF70DF830F705F4
:100110007708BE043E08F80008008316081108108E
:1001200088108312081083160810081688160817FE
:10013000881783128814831688100000831208150C
:1001400083160811000083125C207808BD00081196
:100150008316081100008312081583160811000089
:1001600083125C207808BC0008118316081108125D
:1001700088120813881383123D0EF700F030F7053C
:1001800077083C04F8007808BC00BC1FC928831617
:100190009528BA08031DCE280810CF280814831606
:1001A0000810000083128810831688100000831244
:1001B00008118316081183123B0EBC000F30BC05DA
:1001C0003C08BD0031203B080F39BC00BD00312088
:1001D00008008316081288120813881308110810E3
:1001E0008810831208108316081083128810831653
:1001F000881083120811831608110F308312B6007D
:100200001C200130A8002808033C031C0F290330E0
:10021000BD0031200530B6001C20A80A0329023099
:10022000BD0031200530B6001C20A8012808033C81
:10023000031C232928080420A900BA012908BB00AF
:100240008D20A80A16298A110A12532CF801F901E7
:10025000F701FA012B08031D30292A0803194A293E
:100260001030AC000310A80DA90DF70DFA0D2B08E6
:100270007A02031D3D292A087702031C46292A0811
:10028000F702031CFA032B08FA020314F80DF90D08
:10029000AC0B32298A110A12712C8E30F700290812
:1002A000F8002808F900FA01F808031D6129790807
:1002B000F800F9010830F702F808031D6129F70179
:1002C00069290310F81B6829F90DF80DF703612956
:1002D000F8138A110A12782C370B6F2972294030D3
:1002E000B8007329B80101303602B80738088038E1
:1002F000B900BA013908BB008D2008003508073A5B
:1003000003198C290B3A03199129063A03199929E3
:10031000023A03199F29A4290130B600B7006C21C5
:10032000A929BA010130BB008D200230B6001C2083
:10033000A9290130B6000230B7006C21A929BA0101
:100340001030BB008D20A9290130BA003508BB0050
:100350008D2008000B08A8008B13831603178C1739
:100360000C140000000083120C087F390319F129D6
:100370000313A90003170D080313AA0003170F089E
:100380000313AB002908B5007E212A0803178D004E
:1003900003132B0803178F0083168C170C1400000F
:1003A000000083120C0D0E0D7F390319F129031380
:1003B000A90003170D080313AA0003170F0803135E
:1003C000AB002908B5007E212A0803178D0003130E
:1003D0002B0803178F008D0A03198F0A0313AD2909
:1003E00003170313A81B8B178A110A12872C0B08FB
:1003F000A9008B13831603178C170C140000000040
:100400000318292A83120C087F390313AA00031743
:100410000D080313AB0003170F080313AC002A08E1
:10042000B5007E212B0803178D0003132C0803173A
:100430008F0083168C170C14000000008312031326
:10044000A80B232A262A83160317292A482A83164B
:10045000031783120C0D0E0D7F390313AA00031727
:100460000D080313AB0003170F080313AC002A0891
:10047000B5007E212B0803178D0003132C080317EA
:100480008F008D0A03198F0A03100313A80BFA2992
:10049000A91B8B178A110A129C2C8318522A3D30F3
:1004A00084008313F701F801F901FA01BD01BE01CF
:1004B000BF01C0013C083B043A0439040319902AE7
:1004C0002030C1000310B50DB60DB70DB80DBD0D30
:1004D000BE0DBF0DC00D3C084002031D792A3B082C
:1004E0003F02031D792A3A083E02031D792A390882
:1004F0003D02031C8A2A3908BD023A08031C3A0F40
:10050000BE023B08031C3B0FBF023C08031C3C0F10
:10051000C0020314F70DF80DF90DFA0DC10B622A94
:100520003D088000840A3E088000840A3F0880005D
:10053000840A4008800008000408AD002C08AF00C1
:1005400003192E2B2B08B8002A08B7002908B6007B
:100550002808B500BC01BB012030BA008230B900C8
:1005600035080319202BBD0039080319202BBD07BE
:100570000318C12A7F30BD02031C202B0319202B36
:10058000C52A8130BD070318202B3D08F700F8016C
:10059000F901FA013608C100C1173708C000380850
:1005A000BF001830BD00BE013F1CEE2A3C08FA0710
:1005B000031CE02AF90A031DE02AF80A0319BE17F2
:1005C0003B08F907031CE72AF80A0319BE173A0883
:1005D000B700B7173708F8070318BE17BE0DF80C99
:1005E000F90CFA0CC10CC00CBF0C0310BD0BD32AC4
:1005F0000130F7070318202BF81B052BC10DFA0D4E
:10060000F90DF80DF7030319202BC11F162BFA0A59
:10061000031D162BF90A031D162BF80A031D162BB2
:10062000F80CF90CFA0CF70A0319202B3608BE0057
:100630003A08BE06BE1F1E2BF817242BF813242BD6
:10064000F701F801F901FA017A08AB007908AA006C
:100650007808A9007708A800AF0BA22A2B08B800D9
:100660002A08B7002908B6002808B5003508B63CA6
:10067000B500FA013608B900B6170310B60CB70C6E
:10068000B80CFA0CF90CF80CF70CB50B3D2BB91F94
:10069000542BF709F809F909FA09F70A0319F80AB6
:1006A0000319F90A0319FA0A7A08AB007908AA00B3
:1006B0007808A9007708A800AB1F6B2BAD03AD1617
:1006C000A809A909AA09AB09A80A0319A90A0319C3
:1006D000AA0A0319AB0A3B30B4009A30B300CA30FF
:1006E000B200B1010A30AF002C080319AD0A83141F
:1006F0002830840083132B08B8002A08B700290883
:10070000B6002808B5003408BC003308BB00320826
:10071000BA003108B9004D227808F708031DA32B51
:100720002C0A2F020319A32B2D080319A52B0F390F
:100730002F0203199D2B0318D52BAD1BD52B2D1B79
:10074000A52B2030D12B2030AD05AD1EB32BAD1223
:100750002C08031DAD037708AD002D30B5007E21B8
:100760002D08F700AD012C082F02031DC12B7708BF
:10077000AD002E30B5007E212D08F7002030AD05EC
:1007800000303030AD1ED12BAD122C08031DAD034F
:100790007708AD002D30B5007E212D08F700AD01A2
:1007A0003030F7077708B5007E2183103408B80091
:1007B0003308B7003208B6003108B500BC01BB01F0
:1007C000BA010A30B9004D227A08B4007908B300A2
:1007D0007808B2007708B100AF0B772B8A110A12A4
:1007E000A92C2908B0002D08B006B01FFC2B03115E
:1007F0000310A91B03142F2C2908B0002C08B100EA
:100800002808B10203190A2CB01F2F2C0308013A43
:1008100083002F2C2D08B1002908B1020319162CD2
:10082000B01F2F2C0308013A83002F2C2E08B10093
:100830002A08B1020319222CB01F2F2C0308013AF9
:1008400083002F2C2F08B1002B08B10203192E2C86
:10085000B01F2F2C0308013A83002F2C031008002F
:1008600003081F398300FF30A00083161F149F1454
:100870001F159F1107309C0083138312A101A30150
:10088000A201A701A601A501A40183161F109F14B0
:100890001F159F151F1383121F179F1783169F176E
:1008A00083121F14E9280030F8001F08C7397804A4
:1008B0009F00A108031D602CA1011F1DA10A592C36
:1008C0001F151F19612C83161E088312A2001E0813
:1008D000A3002308A9002208A800AB016430AA00E5
:1008E00026297908FA007808A8007908A9004D2976
:1008F0007A08A7007908A6007808A5007708A40060
:100900000C3003178D0000308F000313AA29043028
:10091000A800FA30B6001C20A80B892C0130B600C4
:10092000B7006C21163003178D0000308F000310C4
:1009300009300313A800F729893084002708AB0089
:100940002608AA002508A9002408A8000230AC0047
:100950009C2A0230A800FA30B6001C20A80BAB2C51
:10096000AB01AA016030A9008130A8002708AF00C0
:100970002608AE002508AD002408AC00F1230318BA
:10098000C32C031DCD2C2010200883168700831252
:1009900007146430B6001C20E72C2708AB0026089B
:1009A000AA002508A9002408A800AF01AE01403024
:1009B000AD008030AC00F123031CE72C2010200890
:1009C00083168700831207106430B6001C20532C56
:0209D0006300C2
:02400E00313F40
:00000001FF
;PIC16F877A
;CRC=E8E8  CREATED="28-Jun-22 08:50"
