:1000000002308A00A92A00000A108A100A11820709
:1000100028340C34013406342D3084008313000856
:10002000031920280130F800F701F70B1528F80B09
:1000300014284A30F700F70B1B281E28800B1228C3
:1000400008003418252808122628081683160812D6
:100050008312B4182D2888122E2888168316881229
:100060008312341935280813362808178316081305
:100070008312B4193D2888133E28881783168813E5
:1000800000008312081583160811462883120811F0
:100090008316081183120800B50183160816003074
:1000A0008312081A0130B5048316881600308312B3
:1000B000881A0130F7000310F70D7708B50483168E
:1000C000081700308312081B0130F700F70DF70DF9
:1000D000FC30F7057708B5048316881700308312C3
:1000E000881B0130F700F70DF70DF70DF830F70515
:1000F0007708B5043508F8000800831608110810C1
:10010000881083120810831608100816881608171E
:10011000881783128814831688100000831208152C
:1001200083160811000083124C207808B4000811CF
:1001300083160811000083120815831608110000A9
:1001400083124C207808B300081183160811081296
:100150008812081388138312340EF700F030F70565
:1001600077083304F8007808B300B31FB928831662
:100170008528B108031DBE280810BF28081483165F
:100180000810000083128810831688100000831264
:100190000811831608118312320EB3000F30B30515
:1001A0003308B400212032080F39B300B4002120F5
:1001B0000800831608128812081388130811081003
:1001C0008810831208108316081083128810831673
:1001D000881083120811831608110F308312AD00A6
:1001E0000C200130A7002708033C031CFF28033024
:1001F000B40021200530AD000C20A70AF3280230FE
:10020000B40021200530AD000C20A7012708033CD5
:10021000031C132927080420A800B1012808B200F4
:100220007D20A70A06298A110A12BC2A0830F80084
:1002300000008711A0112008831687000000831298
:10024000AB0D0712031C2A292016200883168700ED
:100250002E298312201220088316870000008312A3
:10026000A0152008831687008312871D3529F80BF7
:10027000182900008711A0112008831687000000AC
:1002800083122016200883168700000000008312C6
:10029000A0152008831687008312871D4D29F801B9
:1002A0000000071A78148711A01120088316870010
:1002B0008312071220122008831687008312080079
:1002C000201620088316870000008312A01520083E
:1002D000831687000000831207122012200883165D
:1002E0008700000083128711A01120088316870061
:1002F000D0308312AB0016212708AB001621280846
:10030000AB001621201220088316870000008312FC
:10031000A0152008831687008312871D8D290000F1
:100320009129000020162008831687000000831200
:1003300008002E0B9C299F294030AF00A029AF0157
:1003400001302D02AF072F088038B000B10130080E
:10035000B2007D20080020162008831687000000C8
:100360008312A0152008831687000000831207124D
:100370002012200883168700000083128711A01125
:10038000200883168700D0308312AB00162129087D
:10039000AB0016212012200883168700000083126C
:1003A000A0152008831687008312871DD529000019
:1003B000D929000020162008831687000000831228
:1003C000201620088316870000008312A01520083D
:1003D000831687000000831207122012200883165C
:1003E0008700000083128711A01120088316870060
:1003F000D1308312AB001621F7010830AC0077082A
:10040000AD00201620088316870000008312A01577
:100410002008831687008312871D0C2A071A0314ED
:10042000071E0310F80D0000A01120088316870096
:1004300083128711AC0B012A20162008831687002F
:100440000000831207122D0803192B2A20122008FE
:100450008316870083120000A015200883168700EA
:100460008312871D312A00008711A01120088316EE
:1004700087000000831207122012200883168700CD
:1004800078088312AA002012200883168700000033
:100490008312A0152008831687008312871D4E2A19
:1004A0000000522A00002016200883168700000052
:1004B00083122A08F80008002C08073A03196A2A50
:1004C0000B3A03196F2A063A0319772A023A0319DD
:1004D0007D2A822A0130AD00AE009921872AB10120
:1004E0000130B2007D200230AD000C20872A01309F
:1004F000AD000230AE009921872AB1011030B20060
:100500007D20872A0130B1002C08B2007D20080030
:10051000AB1B9A2A0F30F7002A0EF7050A30770234
:100520000318952A3030F707972A2B08F707770822
:10053000AC005C220F30AA050A302A020318A22A56
:100540003030A42AAB132B08AA072A08AC005C227F
:10055000080003081F398300FF30A000A101A20199
:100560000630A30083161F149F141F159F11073018
:100570009C0083138312D928A7012108A8006021B9
:100580000130A7002208A80060210230A70023083C
:10059000A80060210530A400A5010130AD00AE0027
:1005A00099210230A900AB217808A7000130A900E9
:1005B000AB217808A800A901AB217808A900270879
:1005C000AA005730AB0088222D30AC005C222808EE
:1005D000AA005730AB0088222D30AC005C222908DD
:1005E000AA005730AB008822A901AB217808A600E9
:1005F0002608053C031D022B8316061083120614E1
:100600000130A50024080A3C03190B2B831605149E
:1006100083120518122BA401A5018316061083125C
:100620000610152B250B152BA40A0130AD00023046
:10063000AE0099210430A900AB217808A70005304D
:10064000A900AB217808A8000630A900AB217808E2
:10065000A9002708AA005730AB0088222D30AC0033
:100660005C222808AA005730AB0088222D30AC004D
:100670005C222908AA005730AB0088220430A7006A
:0E068000FA30AD000C20A70B402BCD2A6300F2
:02400E00313F40
:00000001FF
;PIC16F877A
;CRC=A5FA  CREATED="18-Jan-23 20:15"
