:1000000000308A00F02800000A108A100A118207C6
:1000100028340C34013406342B3084008313000858
:1000200003191F280630F800F701F70B1528F80B05
:1000300014287B30F700F70B1B28800B12280800D0
:100040002D0EF039F7000F30080577048800000006
:1000500008140230F700F70B2B282E280000081098
:1000600008000808F700080E0F39F80008000F30E4
:10007000831608058800081088100811831288105C
:10008000081108100F30AB000C200130A800280820
:10009000033C031C53280330AD0020200530AB0087
:1000A0000C20A80A47280230AD0020200530AB0004
:1000B0000C20A8012808033C031CA72828080420BA
:1000C000A900AA012908AB0083160810881008119E
:1000D000831288100F3083160805F03888008312C9
:1000E000081500000814000031207808AD00081041
:1000F000000008147B287C28000031207808AC0020
:1001000008100F3083160805880083122D0EF700A3
:10011000F030F70577082C04F8007808AC00AC1B29
:100120006A282A1C88102A18881400000811000068
:1001300008102B0EAC000F30AC052C08AD002020B1
:100140002B080F39AC00AD002020A80A5A288A11CC
:100150000A12FF280330AD02031CB8282D3084009A
:10016000831300080319B828B628B628800BB528D1
:10017000080020112008831687008312071529081C
:10018000AA00AA0AAA030319C928FF30AD00AA20B1
:10019000C2282808AD00AA20201120088316870055
:1001A000831207112808203CAA004E30AB00290812
:1001B000031C290FAB022B08AC00AC0AAC030319DB
:1001C000E528FF30AD00AA20DE282A08AD00AA20CD
:1001D0000430AA00FA30AB000C20AA0BEA28080071
:1001E00003081F398300FF30A00083161F149F14DB
:1001F0001F159F1107309C00831383123728A40119
:10020000A301A5010430A7007E30A60083161F10AD
:100210009F101F159F111F1383121F179F178316FF
:100220009F1783121F14831686018312860183167B
:100230000610831206140530A900DC30A800B9208E
:1002400083160611831206150830A800FA30AB0099
:100250000C20A80B26290030F8001F08C7397804A5
:100260009F00A508031D3829A5011F1DA50A3129D6
:100270001F151F19392983161E088312A1001E0895
:10028000A2000830F8001F08C73978049F00A508AD
:10029000031D4E29A5011F1DA50A47291F151F195A
:1002A0004F2983161E088312A3001E08A400A1086C
:1002B000031D5D29A20803196229A308031D6329F0
:1002C000A4080319A629831606118312061127080C
:1002D000063C03187629FF3A031D722926086C3C58
:1002E000031876290430A7007E30A60022082402D5
:1002F000031C8E29031D80292308210203188E293F
:1003000083168611831286152708A9002608A800DF
:10031000B9203C30A6070318A70AA5292308210203
:10032000031D9629240822020319A0292408220269
:10033000031CA529031DA029210823020318A529B0
:10034000831686118312861120292029A108031DF6
:10035000AC29A2080319B229A308031DB729A408D0
:10036000031DB7298316861083128614A6296300FD
:02400E00323F3F
:00000001FF
;PIC16F877A
;CRC=6A4C  CREATED="13-Nov-22 13:40"
