:1000000001308A00E7290000412AAB214722C3279B
:100010004E2ABD182C11492822162C1130173017E2
:10002000301730112C182C180000412AAB21C720A2
:10003000542A3D180001412AAB21C720542ABD187B
:100040000001412AAB21C720432ABD18AC1800018A
:10005000412AAB21472841224429BD180001412AE9
:10006000AB2941284229BD19AC182C11C3274E2AAF
:10007000592845112C114728D2292200412AAB29A1
:1000800041284229BD19AC182C1141284E112C11C0
:10009000F73B77110001412AAB29412842293D183D
:1000A000AC180001412AAB2941284229BD18AC18DF
:1000B0000001412AAB29412842293D19AC18000111
:1000C000412A2B24542A502A45294D00412A2B2409
:1000D000542A502A45294D00412A2B24542AD02441
:1000E000CE245400412A2B24542AD0295326BD184B
:1000F0000001412A2B24542A50284129C11EA22143
:10010000492222163100412A2B24542A5028412901
:10011000C11EA22A522622162234743AF039BA1786
:10012000AF30F0342E3AE834EE337338E5306B17E5
:10013000E337ED177538E430F4323F006138E92FCA
:10014000EB32F91ED0283727B82742285825D41A71
:10015000D11A31192633E9326C32B21EE3377537C2
:10016000F41E25322200412A2B24542AD020432A6F
:10017000C927CE1E300024308400831300080319E1
:10018000CF280130F800F701F70BC428F80BC3287B
:100190004A30F700F70BCA28CD28800BC128080089
:1001A0000B08A3008B13831603178C170C14000085
:1001B000000083120C087F39031919290313A400C6
:1001C00003170D080313A50003170F080313A60058
:1001D00024080C1EE9289900250803178D00031335
:1001E000260803178F0083168C170C1400000000DC
:1001F00083120C0D0E0D7F39031919290313A40066
:1002000003170D080313A50003170F080313A60017
:1002100024080C1E09299900250803178D000313D3
:10022000260803178F008D0A03198F0A0313D3289A
:1002300003170313A31B8B1708000B08A4008B13D1
:10024000831603178C170C140000000003185029A4
:1002500083120C087F390313A50003170D0803133D
:10026000A60003170F080313A70025080C1E362944
:100270009900260803178D000313270803178F0022
:1002800083168C170C140000000083120313A30BB9
:100290004A294D29831603175029702983160317FD
:1002A00083120C0D0E0D7F390313A50003170D08E3
:1002B0000313A60003170F080313A70025080C1E3D
:1002C0005F299900260803178D00031327080317D9
:1002D0008F008D0A03198F0A03100313A30B202923
:1002E000A41B8B178A110A120A2B2A08F80129026B
:1002F00003187D292908F7008929F7010830AB0088
:10030000A90DF70D2A0877020318F700F80DAB0BBB
:10031000802908002030241E3030A5002308F70073
:10032000A31F9A29F709F70A7708A3002D30A50023
:10033000A41724142308A9006430AA0075217708A3
:10034000A30030307807A6002308A9000A30AA00CD
:10035000752130307707A80030307807A7002508CE
:10036000F700303026020319B929A414A41B241560
:10037000CD292508A6002030A5003030270203191A
:10038000C5292414A41BA414CD29031D2414031D62
:10039000CD292608A7002030A6002419D429A418A6
:1003A000D8292418DC29E02925080C1ED529990014
:1003B00026080C1ED929990027080C1EDD29990052
:1003C00028080C1EE12999008A110A120F2B030834
:1003D0001F398300A001193083169900A6309800B8
:1003E00090308312980083161F149F141F159F11BD
:1003F00007309C00831381138312A1010D30A200EA
:1004000083160614831206180B2A83160614831209
:10041000061C052AA10A83168614831286182C2B23
:1004200041300C1E112A990054300C1E152A9900D7
:1004300022080C1E192A9900C830A400BB200430E1
:1004400003178D0000308F000313D02022080C1EEC
:10045000272A9900C830A400BB20153003178D004F
:1004600000308F000313D02022080C1E352A99007B
:10047000C830A400BB201B3003178D0000308F0054
:100480000313D02022080C1E432A99000830A30031
:10049000FA30A400BB20A30B482A213003178D009B
:1004A00000308F000313D02022080C1E552A99001B
:1004B000C830A400BB20283003178D0000308F0007
:1004C0000313D02022080C1E632A9900C830A40010
:1004D000BB202F3003178D0000308F000313D02076
:1004E00022080C1E712A9900C830A400BB203E309F
:1004F00003178D0000308F000313D02022080C1E3C
:100500007F2A9900C830A400BB204B3003178D0010
:1005100000308F000313D02022080C1E8D2A990072
:10052000C830A400BB20523003178D0000308F006C
:100530000313D02022080C1E9B2A99000830A30028
:10054000FA30A400BB20A30BA02A593003178D005A
:1005500000308F000313D02022080C1EAD2A990012
:10056000C830A400BB20603003178D0000308F001E
:100570000313D02022080C1EBB2A9900C830A40007
:10058000BB20663003178D0000308F000313D0208E
:1005900022080C1EC92A9900C830A400BB206C3068
:1005A00003178D0000308F000313D02022080C1E8B
:1005B000D72A9900C830A400BB20723003178D00E1
:1005C00000308F000313D02022080C1EE52A99006A
:1005D000C830A400BB20793003178D0000308F0095
:1005E0000313D02022080C1EF32A9900C830A4005F
:1005F000BB20833003178D0000308F000313D02001
:100600009E3003178D0000308F0003102630031337
:10061000A3001D292108A3001830A4008A29223034
:100620000C1E102B990022080C1E142B9900C830A8
:10063000A400BB20B33003178D0000308F000313DC
:10064000D02022080C1E222B99002830A300FA305B
:0C065000A400BB20A30B272B002A630092
:02400E00313F40
:00000001FF
;PIC16F877A
;CRC=CADB  CREATED="20-Aug-21 19:21"
