:1000000000308A000428000003081F39830083168B
:100010001F149F141F159F1107309C008313C030BD
:100020008312A200F930A300A430A400B030A500D0
:100030009930A6009230A7008230A800F830A900BD
:100040008030AA009030AB00831605148312051887
:100050003F282108A10A223E840083130008FF3AAA
:10006000AC008316860183122C0886002108093C07
:10007000031CA101831605148312051C3A282428A9
:0200800063001B
:02400E00313F40
:00000001FF
;PIC16F877A
;CRC=F024  CREATED="17-Jan-23 20:36"
