:1000000003308A00092B00000A108A100A118207A7
:1000100028340C34013406344337A0182C19BD128F
:100020006416253200004337A0192C1ABD1264163D
:10003000253200002C3084008313000803192E2879
:100040000130F800F701F70B2328F80B22284A307B
:10005000F700F70B29282C28800B202808003318DC
:100060003328081234280816831608128312B3188E
:100070003B2888123C28881683168812831233196D
:100080004328081344280817831608138312B3194A
:100090004B2888134C288817831688130000831276
:1000A00008148316081054288312081083160810A9
:1000B00083120800B4018316081600308312081A50
:1000C0000130B4048316881600308312881A013078
:1000D000F7000310F70D7708B404831608170030F3
:1000E0008312081B0130F700F70DF70DFC30F70500
:1000F0007708B4048316881700308312881B0130F8
:10010000F700F70DF70DF70DF830F7057708B40491
:100110003408F800080083160810881008118312AC
:1001200088108316881008168816081788178312F7
:10013000081583160811000083120814831608108E
:10014000000083125A207808B300081083160810A4
:1001500000008312081483160810000083125A202E
:100160007808B200081083160810081288120813C5
:1001700088138312330EF700F030F7057708320446
:10018000F8007808B200B21FC72883169328B00879
:10019000031DCC288810CD288814831688100000F1
:1001A00083120811831608110000831208108316A9
:1001B00008108312310EB2000F30B2053208B300BE
:1001C0002F2031080F39B200B3002F20080083160A
:1001D0000812881208138813081088100811831257
:1001E0008810831688108312081183160811831251
:1001F0000810831608100F308312AC001A2001304B
:10020000A5002508033C031C0D290330B3002F2053
:100210000530AC001A20A50A01290230B3002F20B6
:100220000530AC001A20A5012508033C031C212938
:1002300025080420A600B0012608B1008B20A50ADD
:1002400014298A110A121C2B2D0B27292A29403028
:10025000AE002B29AE0101302C02AE072E088038EB
:10026000AF00B0012F08B1008B2008002B08073A1F
:10027000031944290B3A03194929063A031951294C
:10028000023A031957295C290130AC00AD00242142
:100290006129B0010130B1008B200230AC001A207E
:1002A00061290130AC000230AD0024216129B00188
:1002B0001030B1008B2061290130B0002B08B10053
:1002C0008B2008000B08A6008B13831603178C17CE
:1002D0000C14000000000318942983120C087F39C5
:1002E0000313A70003170D080313A80003170F0833
:1002F0000313A9002708AB003621280803178D0037
:100300000313290803178F0083168C170C140000A1
:10031000000083120313A50B8E299129831603175E
:100320009429B3298316031783120C0D0E0D7F3900
:100330000313A70003170D080313A80003170F08E2
:100340000313A9002708AB003621280803178D00E6
:100350000313290803178F008D0A03198F0A03104E
:100360000313A50B6529A61B8B1708002C08F801A1
:100370002B020318BE292B08F700CA29F701083001
:10038000AD00AB0DF70D2C0877020318F700F80D40
:10039000AD0BC12908002030261E3030A7002508EB
:1003A000F700A51FDB29F709F70A7708A5002D300C
:1003B000A700A61726142508AB006430AC00B621B0
:1003C0007708A50030307807A8002508AB000A3070
:1003D000AC00B62130307707AA0030307807A9008A
:1003E0002708F700303028020319FA29A614A61BA3
:1003F00026150E2A2708A8002030A7003030290231
:100400000319062A2614A61BA6140E2A031D261459
:10041000031D0E2A2808A9002030A8002619152A35
:10042000A618182A26181B2A1E2A2708AB003621D0
:100430002808AB0036212908AB0036212A08AB007A
:100440003621080083168601831286010030A4003D
:1004500083168701831287018316091089100911F9
:1004600083128901080022228316061083120614C3
:10047000A41124088316870083128715A41024086A
:1004800083168700831287148316091183120915B6
:10049000A0018A110A12952B22228316861083123C
:1004A0008614A4112408831687008312871524114B
:1004B00024088316870083120715831609108312F8
:1004C0000914A1018A110A12A32B22222410240844
:1004D00083168700831207148316891083128914E8
:1004E000A41124088316870083128715831606112A
:1004F00083120615A2018A110A12B12B2222831639
:10050000061083120614A41224088316870083128F
:100510008716241024088316870083120714831675
:10052000891083128914A3018A110A12BF2B831622
:10053000061083120614A411240883168700831260
:100540008715A41024088316870083128714831646
:100550000911831209150C30A500FA30AC001A20DD
:10056000A50BAD2A22228316861083128614A411AD
:100570002408831687008312871524112408831604
:1005800087008312071583160910831209140C3093
:10059000A500FA30AC001A20A50BC92A2222831626
:1005A000061183120615241224088316870083126D
:1005B0000716241024088316870083120714831655
:1005C0000910831209140C30A500FA30AC001A206F
:1005D000A50BE52A22228316061083120614A41204
:1005E0002408831687008312871624102408831694
:1005F00087008312071483168910831289140C3024
:10060000A500FA30AC001A20A50B012B8A110A12A2
:10061000C22B03081F398300A001A101A201A3017D
:10062000FF30A40083161F149F141F159F1107305D
:100630009C0083138312E72883168601FF30831200
:1006400086000030A40083168701FF3083128700E4
:100650008316091089100911831289000430A5003E
:10066000FA30AC001A20A50B302B83160514831228
:10067000051C3C2B0130A007831685148312851CB2
:10068000432B0130A107831605158312051D4A2B44
:100690000130A207831685158312851D512B013069
:1006A000A3070130AC00AD0024210C3003178D00EE
:1006B00000308F00031007300313A50062212008CB
:1006C000A5001830A600CB212C30AB003621210824
:1006D000A5001830A600CB210130AC000230AD00DF
:1006E0002421133003178D0000308F0003100730D2
:1006F0000313A50062212208A5001830A600CB2113
:100700002C30AB0036212308A5001830A600CB21E1
:10071000200821020318962B200822020318962B8A
:10072000200823020318962B332AC22B210820020B
:100730000318A42B210822020318A42B210823024A
:100740000318A42B4C2AC22B220820020318B22B18
:10075000220821020318B22B220823020318B22B0D
:10076000652AC22B230820020318C02B230822026B
:100770000318C02B230821020318C02B7E2AC22B8A
:080780002222972A352B6300A9
:02400E00313F40
:00000001FF
;PIC16F877A
;CRC=22D5  CREATED="16-Jan-23 13:33"
