:1000000000308A00A42800000A108A100A11820712
:1000100028340C340134063429308400831300085A
:10002000031920280130F800F701F70B1528F80B09
:1000300014284A30F700F70B1B281E28800B1228C3
:1000400008002D0EF039F7000F30080577048800FE
:10005000000008142B28081008000808F700080EF4
:100060000F39F80008000F308316080588000810C3
:100070008810081183128810081108100F30A90089
:100080000C200130A8002808033C031C4F28033033
:10009000AD0021200530A9000C20A80A4328023019
:1000A000AD0021200530A9000C20A8012808033C40
:1000B000031CA12828080420A900AA012908AB00D4
:1000C0008316081088100811831288100F308316C9
:1000D0000805F03888008312081500000814000095
:1000E0002D207808AD0008100000081400002D2015
:1000F0007808AC0008100F308316080588008312BA
:100100002D0EF700F030F70577082C04F80078087A
:10011000AC00AC1B66282A1C88102A188814000022
:100120000811000008102B0EAC000F30AC052C0895
:10013000AD0021202B080F39AC00AD002120A80A0A
:1001400056288A110A12B32803081F398300FF308A
:10015000A00083161F149F141F159F1107309C00C9
:10016000831383123328A401A301A5010130A70042
:100170000E30A60083161F109F101F159F111F130E
:1001800083121F179F1783169F1783121F1483163E
:10019000860183128601831606108312061420112D
:1001A000200883168700831207110C30970048300F
:1001B00095001708CF39203897000030F80006382E
:1001C0009200FF3083169200061183120615083044
:1001D000A800FA30A9000C20A80BE9280030F8008C
:1001E0001F08C73978049F00A508031DFB28A50137
:1001F0001F1DA50AF4281F151F19FC2883161E08A9
:100200008312A1001E08A2000830F8001F08C73999
:1002100078049F00A508031D1129A5011F1DA50A2B
:100220000A291F151F19122983161E088312A300FD
:100230001E08A400A108031D2029A20803192529CE
:10024000A308031D2629A408031982298316061171
:10025000831206110830A800FA30A9000C20A80B60
:100260002C292708003C03184029FF3A031D3C298C
:100270002608D63C031840290130A7002230A600EA
:1002800022082402031C6629031D4A29230821028F
:100290000318662983168611831286152708F9002C
:1002A0002608F800F90CF80CF90CF80CF90C780891
:1002B0009500F90C790C3039F7001708CF3977041D
:1002C00097000A30A6070318A70A7F2923082102EE
:1002D000031D6E292408220203197829240822020A
:1002E000031C7F29031D78292108230203187F2975
:1002F00083168611831286118316E42883128316CF
:10030000E4288312831686108312861482296300E0
:02400E00313F40
:00000001FF
;PIC16F877A
;CRC=36CC  CREATED="13-Nov-22 17:29"
