:1000000002308A00732A00000A108A100A1182073F
:1000100028340C34013406348C31EF3A6E3AA01E89
:10002000A01264000C10C23A7310C6346C366532EC
:100030002E172E002A3084008313000803192E285F
:100040000130F800F701F70B2328F80B22284A307B
:10005000F700F70B29282C28800B202808003118DE
:100060003328081234280816831608128312B11890
:100070003B2888123C28881683168812831231196F
:100080004328081344280817831608138312B1194C
:100090004B2888134C288817831688130000831276
:1000A00008158316081154288312081183160811A5
:1000B00083120800B2018316081600308312081A52
:1000C0000130B2048316881600308312881A01307A
:1000D000F7000310F70D7708B204831608170030F5
:1000E0008312081B0130F700F70DF70DFC30F70500
:1000F0007708B2048316881700308312881B0130FA
:10010000F700F70DF70DF70DF830F7057708B20493
:100110003208F800080083160811081088108312AE
:1001200008108316081008168816081788178312F7
:10013000881483168810000083120815831608118E
:10014000000083125A207808B100081183160811A4
:1001500000008312081583160811000083125A202C
:100160007808B000081183160811081288120813C5
:1001700088138312310EF700F030F705770830044A
:10018000F8007808B000B01FC72883169328AE087F
:10019000031DCC280810CD28081483160810000071
:1001A00083128810831688100000831208118316AA
:1001B000081183122F0EB0000F30B0053008B100C7
:1001C0002F202F080F39B000B1002F200800831610
:1001D0000812881208138813081108108810831257
:1001E0000810831608108312881083168810831253
:1001F0000811831608110F308312AA001A2001304B
:10020000A2002208033C031C0D290330B1002F205B
:100210000530AA001A20A20A01290230B1002F20BD
:100220000530AA001A20A2012208033C031C212940
:1002300022080420A300AE012308AF008B20A20AED
:1002400014298A110A12802A2B0B27292A294030C7
:10025000AC002B29AC0101302A02AC072C088038F5
:10026000AD00AE012D08AF008B2008002908073A29
:10027000031944290B3A03194929063A031951294C
:10028000023A031957295C290130AA00AB00242146
:100290006129AE010130AF008B200230AA001A2084
:1002A00061290130AA000230AB0024216129AE018E
:1002B0001030AF008B2061290130AE002908AF005B
:1002C0008B2008000B08A4008B13831603178C17D0
:1002D0000C14000000000318942983120C087F39C5
:1002E0000313A50003170D080313A60003170F0837
:1002F0000313A7002508A9003621260803178D003F
:100300000313270803178F0083168C170C140000A3
:10031000000083120313A30B8E2991298316031760
:100320009429B3298316031783120C0D0E0D7F3900
:100330000313A50003170D080313A60003170F08E6
:100340000313A7002508A9003621260803178D00EE
:100350000313270803178F008D0A03198F0A031050
:100360000313A30B6529A41B8B178A110A129F2A5A
:100370002A08F80129020318C0292908F700CC2906
:10038000F7010830AB00A90DF70D2A087702031812
:10039000F700F80DAB0BC32908002030241E3030C5
:1003A000A5002308F700A31FDD29F709F70A77083E
:1003B000A3002D30A500A41724142308A90064303D
:1003C000AA00B8217708A30030307807A6002308D8
:1003D000A9000A30AA00B82130307707A8003030D1
:1003E0007807A7002508F700303026020319FC29FA
:1003F000A414A41B2415102A2508A6002030A5004B
:10040000303027020319082A2414A41BA414102A2C
:10041000031D2414031D102A2608A7002030A6005F
:100420002419172AA4181A2A24181D2A202A250854
:10043000A90036212608A90036212708A90036215F
:100440002808A90036218A110A12A42A0B08A20042
:100450008B13831603178C170C14000000008312F3
:100460000C087F3903196D2A0313A30003170D0825
:100470000313A40003170F080313A5002308A90002
:100480003621240803178D000313250803178F0056
:1004900083168C170C140000000083120C0D0E0D37
:1004A0007F3903196D2A0313A30003170D080313E3
:1004B000A40003170F080313A5002308A900362181
:1004C000240803178D000313250803178F008D0AD6
:1004D00003198F0A0313292A03170313A21B8B176F
:1004E0008A110A12AF2A03081F39830083161F14CA
:1004F0009F141F159F1107309C0083138312E72858
:100500008316811301308312A1008316061483120F
:100510000618A42A6430AA001A208316061483122F
:10052000061C8D2A2108A10AA2000C3003178D0099
:1005300000308F00031009300313A3006229220842
:10054000A3001830A400CD2921083C3C031DB02A8B
:10055000123003178D0000308F000313262AA101EB
:04056000852A630085
:02400E00313F40
:00000001FF
;PIC16F877A
;CRC=9465  CREATED="15-Jan-23 20:46"
