:1000000001308A004C2900000D10E23A7310F730DD
:100010007310E6346C366532A03B693A68102532BD
:10002000A036E536E232F2392E1700000D10C23A42
:100030007310C6346C3665322E172E0022308400C1
:1000400083130008031932280130F800F701F70B79
:100050002728F80B26284A30F700F70B2D283028E0
:10006000800B24288A110A126C290B08A4008B1318
:10007000831603178C170C1400000000031868285F
:1000800083120C087F390313A50003170D0803130F
:10009000A60003170F080313A70025080C1E4E28FF
:1000A0009900260803178D000313270803178F00F4
:1000B00083168C170C140000000083120313A30B8B
:1000C0006228652883160317682888288316031773
:1000D00083120C0D0E0D7F390313A50003170D08B5
:1000E0000313A60003170F080313A70025080C1E0F
:1000F00077289900260803178D0003132708031794
:100100008F008D0A03198F0A03100313A30B3828DD
:10011000A41B8B1708002A08F8012902031893284A
:100120002908F7009F28F7010830AB00A90DF70D4B
:100130002A0877020318F700F80DAB0B9628080081
:100140002030241E3030A5002308F700A31FB0285C
:10015000F709F70A7708A3002D30A500A417241487
:100160002308A9006430AA008B207708A300303050
:100170007807A6002308A9000A30AA008B20303097
:100180007707A80030307807A7002508F70030303F
:1001900026020319CF28A414A41B2415E32825083C
:1001A000A6002030A500303027020319DB282414D4
:1001B000A41BA414E328031D2414031DE32826080C
:1001C000A7002030A6002419EA28A418EE28241835
:1001D000F228F62825080C1EEB28990026080C1E8C
:1001E000EF28990027080C1EF328990028080C1EF8
:1001F000F72899008A110A1283290B08A2008B1391
:10020000831603178C170C140000000083120C08CF
:100210007F39031946290313A30003170D0803139D
:10022000A40003170F080313A50023080C1E1629AA
:100230009900240803178D000313250803178F0066
:1002400083168C170C140000000083120C0D0E0D89
:100250007F39031946290313A30003170D0803135D
:10026000A40003170F080313A50023080C1E36294A
:100270009900240803178D000313250803178F0026
:100280008D0A03198F0A0313002903170313A21BF6
:100290008B178A110A12982903081F398300A001BD
:1002A000193083169900A630980090308312980078
:1002B00083161F149F141F159F1107309C00831372
:1002C000811301308312A1008316061483120618CD
:1002D0008D296430A2001E28831606148312061C82
:1002E0006C292108A10AA200043003178D000030F8
:1002F0008F00031016300313A30035202208A3003B
:100300001830A400A028103003178D0000308F0093
:1003100003100A300313A300352021083C3C031DC1
:100320009929163003178D0000308F000313FD2824
:06033000A1016429630035
:02400E00313F40
:00000001FF
;PIC16F877A
;CRC=4349  CREATED="15-Jan-23 19:50"
