:1000000000308A004A280000FF00030E8301A1008F
:100010000A08A0008A010408A2007708A300780853
:10002000A4007908A5007A08A600831383128C30F7
:100030008400001C1D280C182E2822088400230888
:10004000F7002408F8002508F9002608FA0020081F
:100050008A00210E8300FF0E7F0E09008A110A120A
:100060003128831605148312051C3E28270CA70C83
:10007000831686018312270886004528270DA70DC1
:10008000831686018312270886000C100C108A1133
:100090000A121D2803081F3983000130A7008316A8
:1000A0001F149F141F159F1107309C008313953058
:1000B0008312900083160C14C03083128B045F28C7
:0200C0006300DB
:02400E00313F40
:00000001FF
;PIC16F877A
;CRC=A625  CREATED="19-Nov-22 23:20"
