:1000000000308A001B28000025308400831300087C
:10001000031918280130F800F701F70B0D28F80B29
:100020000C284A30F700F70B13281628800B0A28F3
:100030008A110A126F2803081F398300FF30A000BD
:1000400083161F149F141F159F1107309C008313E4
:100050008312A101A301A20183161F109F141F1573
:100060009F151F1383121F179F1783169F17831245
:100070001F14A010200883168700831287100C30ED
:100080009D000030F8001F08C73978049F00A108C0
:10009000031D4E28A1011F1DA10A47281F151F1966
:1000A0004F2883161E088312A2001E08A3002308EF
:1000B000F9002208F800F90CF80CF90CF80CF90C0E
:1000C00078089B00F90C790C3039F7001D08CF39FE
:1000D00077049D000230A400FA30A5000428A40B88
:0600E0006C2841286300BA
:02400E00313F40
:00000001FF
;PIC16F877A
;CRC=1A52  CREATED="17-Jan-23 20:55"
