:1000000002308A00702A00000A108A100A11820742
:1000100028340C340134063427308400831300085C
:10002000031920280130F800F701F70B1528F80B09
:1000300014284A30F700F70B1B281E28800B1228C3
:1000400008002E18252808122628081683160812DC
:100050008312AE182D2888122E288816831688122F
:1000600083122E193528081336280817831608130B
:100070008312AE193D2888133E28881783168813EB
:1000800000008312081583160811462883120811F0
:100090008316081183120800AF018316081600307A
:1000A0008312081A0130AF048316881600308312B9
:1000B000881A0130F7000310F70D7708AF04831694
:1000C000081700308312081B0130F700F70DF70DF9
:1000D000FC30F7057708AF048316881700308312C9
:1000E000881B0130F700F70DF70DF70DF830F70515
:1000F0007708AF042F08F8000800831608110810CD
:10010000881083120810831608100816881608171E
:10011000881783128814831688100000831208152C
:1001200083160811000083124C207808AE000811D5
:1001300083160811000083120815831608110000A9
:1001400083124C207808AD0008118316081108129C
:1001500088120813881383122E0EF700F030F7056B
:1001600077082D04F8007808AD00AD1FB928831674
:100170008528AB08031DBE280810BF280814831665
:100180000810000083128810831688100000831264
:1001900008118316081183122C0EAD000F30AD0527
:1001A0002D08AE0021202C080F39AD00AE00212013
:1001B0000800831608128812081388130811081003
:1001C0008810831208108316081083128810831673
:1001D000881083120811831608110F308312A700AC
:1001E0000C200130A1002108033C031CFF28033030
:1001F000AE0021200530A7000C20A10AF328023010
:10020000AE0021200530A7000C20A1012108033CED
:10021000031C132921080420A200AB012208AC0012
:100220007D20A10A06298A110A12802A280B192981
:100230001C294030A9001D29A90101302702A90766
:1002400029088038AA00AB012A08AC007D200800EC
:100250000830F80000008711A011200883168700DD
:1002600000008312A50D0712031C3C29201620084C
:1002700083168700402983122012200883168700E6
:1002800000008312A0152008831687008312871DA3
:100290004729F80B2A2900008711A011200883168E
:1002A00087000000831220162008831687000000B4
:1002B00000008312A0152008831687008312871D73
:1002C0005F29F8010000071A78148711A01120088F
:1002D00083168700831207122012200883168700D6
:1002E000831208002016200883168700000083125E
:1002F000A015200883168700000083120712201221
:10030000200883168700000083128711A01120089F
:1003100083168700D0308312A50028212308A5006A
:100320002821201220088316870000008312A015C0
:100330002008831687008312871D9C290000A029AE
:100340000000201620088316870000008312201664
:1003500020088316870000008312A015200883164A
:1003600087000000831207122012200883168700DE
:10037000000083128711A011200883168700D13056
:100380008312A5002821F7010830A6007708A700EE
:10039000201620088316870000008312A01520086D
:1003A000831687008312871DD329071A0314071E9B
:1003B0000310F80D0000A011200883168700831297
:1003C0008711A60BC8292016200883168700000075
:1003D0008312071227080319F22920122008831616
:1003E000870083120000A01520088316870083125F
:1003F000871DF82900008711A011200883168700A7
:100400000000831207122012200883168700780844
:100410008312A40020122008831687000000831294
:10042000A0152008831687008312871D152A000057
:10043000192A000020162008831687000000831266
:100440002408F80008002608073A0319312A0B3A55
:100450000319362A063A03193E2A023A0319442A96
:10046000492A0130A700A80016214E2AAB0101300D
:10047000AC007D200230A7000C204E2A0130A700DE
:100480000230A80016214E2AAB011030AC007D20AE
:100490004E2A0130AB002608AC007D200800A51BC9
:1004A000612A0F30F700240EF7050A30770203188F
:1004B0005C2A3030F7075E2A2508F7077708A60080
:1004C00023220F30A4050A3024020318692A303091
:1004D0006B2AA5132508A4072408A60023220800D8
:1004E00003081F398300FF30A00083161F149F14D8
:1004F0001F159F1107309C00831381138312D92885
:100500000130A700A80016210230A300722178084C
:10051000A1000130A30072217808A200A30172217A
:100520007808A3002108A4005730A5004F222D30E1
:10053000A60023222208A4005730A5004F222D3008
:10054000A60023222308A4005730A5004F22013023
:10055000A7000230A80016210430A30072217808F9
:10056000A1000530A30072217808A2000630A30084
:1005700072217808A3002108A4005730A5004F225B
:100580002D30A60023222208A4005730A5004F22B8
:100590002D30A60023222308A4005730A5004F22A7
:1005A0000230A100FA30A7000C20A10BD22A802A29
:0205B0006300E6
:02400E00313F40
:00000001FF
;PIC16F877A
;CRC=1C86  CREATED="18-Jan-23 20:03"
