:1000000002308A00EF2A00000A108A100A118207C3
:1000100028340C3401340634092AE536F032F23043
:10002000F43AF2328A04253664102D10C332EC39CA
:10003000E93A7300303084008313000803192E2836
:100040000130F800F701F70B2328F80B22284A307B
:10005000F700F70B29282C28800B202808003718D8
:100060003328081234280816831608128312B7188A
:100070003B2888123C288816831688128312371969
:100080004328081344280817831608138312B71946
:100090004B2888134C288817831688130000831276
:1000A00008158316081154288312081183160811A5
:1000B00083120800B8018316081600308312081A4C
:1000C0000130B8048316881600308312881A013074
:1000D000F7000310F70D7708B804831608170030EF
:1000E0008312081B0130F700F70DF70DFC30F70500
:1000F0007708B8048316881700308312881B0130F4
:10010000F700F70DF70DF70DF830F7057708B8048D
:100110003808F800080083160811081088108312A8
:1001200008108316081008168816081788178312F7
:10013000881483168810000083120815831608118E
:10014000000083125A207808B7000811831608119E
:1001500000008312081583160811000083125A202C
:100160007808B600081183160811081288120813BF
:1001700088138312370EF700F030F705770836043E
:10018000F8007808B600B61FC72883169328B4086D
:10019000031DCC280810CD28081483160810000071
:1001A00083128810831688100000831208118316AA
:1001B00008118312350EB6000F30B6053608B700A9
:1001C0002F2035080F39B600B7002F2008008316FE
:1001D0000812881208138813081108108810831257
:1001E0000810831608108312881083168810831253
:1001F0000811831608110F308312B0001A20013045
:10020000A6002608033C031C0D290330B7002F204D
:100210000530B0001A20A60A01290230B7002F20AD
:100220000530B0001A20A6012608033C031C212932
:1002300026080420A700B4012708B5008B20A60AD1
:1002400014298A110A120E2B8E30F7002708F800A5
:100250002608F900FA01F808031D38297908F80082
:10026000F9010830F702F808031D3829F701402981
:100270000310F81B3F29F90DF80DF7033829F8137F
:100280008A110A12402B26080319B329AE002A0846
:100290000319B329AE07031854297F30AE02031C9B
:1002A000B3290319B32958298130AE070318B3299C
:1002B0002E08F700F801F901FA012708B200B21779
:1002C0002808B1002908B0001830AE00AF01301C7A
:1002D00081292D08FA07031C7329F90A031D7329C4
:1002E000F80A0319AF172C08F907031C7A29F80A32
:1002F0000319AF172B08A800A8172808F807031838
:10030000AF17AF0DF80CF90CFA0CB20CB10CB00C25
:100310000310AE0B66290130F7070318B329F81B49
:100320009829B20DFA0DF90DF80DF7030319B32949
:10033000B21FA929FA0A031DA929F90A031DA9292F
:10034000F80A031DA929F80CF90CFA0CF70A03198D
:10035000B3292708AF002B08AF06AF1FB129F81744
:10036000B729F813B729F701F801F901FA018A1141
:100370000A12512B8E30F7002608F7022708F900E1
:100380002808F800F917F7080319D1290310F9080C
:10039000031DCD29F8080319D129F90CF80CF70B26
:1003A000C629A71FD829F809F909F80A0319F90A73
:1003B0008A110A125A2B310BDE29E1294030B20092
:1003C000E229B20101303002B20732088038B300AE
:1003D000B4013308B5008B2008002F08073A031931
:1003E000FB290B3A0319002A063A0319082A023A94
:1003F00003190E2A132A0130B000B100DB21182A9C
:10040000B4010130B5008B200230B0001A20182A48
:100410000130B0000230B100DB21182AB4011030E5
:10042000B5008B20182A0130B4002F08B5008B20AE
:1004300008000B08A7008B13831603178C170C14E6
:100440000000000003184B2A83120C087F390313A5
:10045000A80003170D080313A90003170F080313BF
:10046000AA002808AF00ED21290803178D00031307
:100470002A0803178F0083168C170C140000000045
:1004800083120313A60B452A482A831603174B2A07
:100490006A2A8316031783120C0D0E0D7F3903137E
:1004A000A80003170D080313A90003170F0803136F
:1004B000AA002808AF00ED21290803178D000313B7
:1004C0002A0803178F008D0A03198F0A03100313DC
:1004D000A60B1C2AA71B8B170800AE010408AD0051
:1004E0002E10831B2E14A71F7D2AAD172D1EAD0ABB
:1004F000A609A709A60A0319A70A270EF038A9001A
:10050000A907E23EAA00323EAC0027080F39AA072D
:10051000AA07AC07E93EAB00AB07AB07260E0F39C5
:10052000AB07AC07AB0DAC0DAC09AC0D26080F3911
:10053000AC07A90D0730A8000A30AC07AB03031CB9
:100540009D2AAB07AA03031CA12AAA07A903031C1F
:10055000A52AA907A803031CA92A2830840083130D
:1005600007302D052D1384032D05031DBE2A2D1ADA
:10057000840A2D1ABE2A2030F700DB2A84072C308B
:10058000040203192D170008F700031DCF2A2D1BA5
:10059000CF2A2D1AE92AAD19CF2A2030DA2AAD1F29
:1005A000D72A2D30F70084032D13AD13DB2AAD15A8
:1005B0002D123030F707A7010408A6002710831B6F
:1005C00027147708AF00ED2126088400831327182D
:1005D0008317840A2D1FBF2A8A110A12732B03085E
:1005E0001F39830083161F149F141F159F11073096
:1005F0009C0083138312A101A301A201A501A40100
:1006000083161F109F101F159F111F1383121F1792
:100610009F1783169F1783121F14E7280030F800D6
:100620001F08C73978049F00A108031D1B2BA101D7
:100630001F1DA10A142B1F151F191C2B83161E0822
:100640008312A2001E08A300A1010830F8001F08B1
:10065000C73978049F00A108031D322BA1011F1D7B
:10066000A10A2B2B1F151F19332B83161E0883126B
:10067000A4001E08A5002508A7002408A600242918
:100680007A08A9007908A8007808A7007708A600CA
:100690002330AD00DB30AC007930AB007D30AA00F8
:1006A00043297A08A9007908A8007808A7007708E4
:1006B000A600BA297908A5007808A4000130B00086
:1006C000B100DB210C3003178D0000308F000310C8
:1006D0000E300313A6001922103084002508A7004D
:1006E0002408A6006D2A143003178D0000308F00F7
:1006F00003140A300313A6001922C830B0001A20D0
:10070000A508031D872B24081E3C0318A02BA30853
:10071000031D972B2208013C031C972B8316061000
:100720008312061483168610831286149F2B831659
:100730000610831206108316861083128610B82BBB
:10074000A308031DB02B2208013C031CB02B831609
:100750008610831286148316061083120610B82B97
:1007600083168610831286108316061083120610D5
:0A077000C830B0001A200E2B630001
:02400E00313F40
:00000001FF
;PIC16F877A
;CRC=49C4  CREATED="16-Jan-23 21:15"
