:1000000000308A0081280000233084008313000818
:10001000031918280130F800F701F70B0D28F80B29
:100020000C284A30F700F70B13281628800B0A28F3
:100030000800A1012108073C031C2A28200CA00C61
:1000400083168601831220088600C830A30004208E
:10005000A10A1A288A110A129028A1012108073C36
:10006000031C3E28200DA00D831686018312200854
:100070008600C830A3000420A10A2E288A110A1283
:100080009428A1012108073C031C572883168601E8
:10009000FF30831286006430A3000420831686019B
:1000A000831286016430A3000420A10A42288A1129
:1000B0000A1298281130A100A2012208073C031C53
:1000C0006D28210DA10D831686018312210886005B
:1000D000C830A3000420A20A5D28A2012208073C20
:1000E000031C7E28210CA10C831686018312210893
:1000F0008600C830A3000420A20A6E288A110A12C2
:100100009C2803081F3983000130A00083161F14A8
:100110009F141F159F1107309C0083138312192809
:10012000C830A30004202D28C830A3000420412893
:10013000C830A30004205A28C830A30004208F2808
:0201400063005A
:02400E00313F40
:00000001FF
;PIC16F877A
;CRC=7383  CREATED="15-Jan-23 23:01"
